{
  "contractName": "Bank",
  "abi": [
    {
      "constant": true,
      "inputs": [
        {
          "name": "",
          "type": "uint256"
        }
      ],
      "name": "loan",
      "outputs": [
        {
          "name": "loan_id",
          "type": "uint256"
        },
        {
          "name": "lender_address",
          "type": "address"
        },
        {
          "name": "borrower_address",
          "type": "address"
        },
        {
          "name": "token_address",
          "type": "address"
        },
        {
          "name": "amount",
          "type": "uint256"
        },
        {
          "name": "settle_count",
          "type": "uint256"
        },
        {
          "name": "next_settle_time",
          "type": "uint256"
        },
        {
          "name": "months",
          "type": "uint256"
        },
        {
          "name": "bal_loan",
          "type": "uint256"
        },
        {
          "name": "current_installment",
          "type": "uint256"
        }
      ],
      "payable": false,
      "stateMutability": "view",
      "type": "function"
    },
    {
      "constant": true,
      "inputs": [
        {
          "name": "",
          "type": "address"
        }
      ],
      "name": "bank_d1",
      "outputs": [
        {
          "name": "name",
          "type": "string"
        },
        {
          "name": "bal",
          "type": "uint256"
        },
        {
          "name": "status",
          "type": "bool"
        },
        {
          "name": "loan_interst",
          "type": "uint256"
        },
        {
          "name": "fixed_deposit_interst",
          "type": "uint256"
        },
        {
          "name": "token_count",
          "type": "uint256"
        },
        {
          "name": "borrow_amount",
          "type": "uint256"
        },
        {
          "name": "lend_amount",
          "type": "uint256"
        },
        {
          "name": "fixed_amount_bank",
          "type": "uint256"
        },
        {
          "name": "fixed_amount_user",
          "type": "uint256"
        }
      ],
      "payable": false,
      "stateMutability": "view",
      "type": "function"
    },
    {
      "constant": true,
      "inputs": [
        {
          "name": "",
          "type": "address"
        }
      ],
      "name": "loan_pro_count",
      "outputs": [
        {
          "name": "",
          "type": "uint256"
        }
      ],
      "payable": false,
      "stateMutability": "view",
      "type": "function"
    },
    {
      "constant": true,
      "inputs": [
        {
          "name": "",
          "type": "address"
        },
        {
          "name": "",
          "type": "uint256"
        }
      ],
      "name": "loan_pro_id",
      "outputs": [
        {
          "name": "",
          "type": "uint256"
        }
      ],
      "payable": false,
      "stateMutability": "view",
      "type": "function"
    },
    {
      "constant": true,
      "inputs": [
        {
          "name": "",
          "type": "address"
        }
      ],
      "name": "bank_client_count",
      "outputs": [
        {
          "name": "",
          "type": "uint256"
        }
      ],
      "payable": false,
      "stateMutability": "view",
      "type": "function"
    },
    {
      "constant": true,
      "inputs": [
        {
          "name": "",
          "type": "uint256"
        }
      ],
      "name": "reg_user",
      "outputs": [
        {
          "name": "",
          "type": "address"
        }
      ],
      "payable": false,
      "stateMutability": "view",
      "type": "function"
    },
    {
      "constant": true,
      "inputs": [
        {
          "name": "",
          "type": "address"
        },
        {
          "name": "",
          "type": "uint256"
        }
      ],
      "name": "my_acc_details",
      "outputs": [
        {
          "name": "",
          "type": "address"
        }
      ],
      "payable": false,
      "stateMutability": "view",
      "type": "function"
    },
    {
      "constant": true,
      "inputs": [
        {
          "name": "",
          "type": "address"
        }
      ],
      "name": "my_acc_count",
      "outputs": [
        {
          "name": "",
          "type": "uint256"
        }
      ],
      "payable": false,
      "stateMutability": "view",
      "type": "function"
    },
    {
      "constant": true,
      "inputs": [
        {
          "name": "",
          "type": "address"
        },
        {
          "name": "",
          "type": "address"
        }
      ],
      "name": "bank_client_Details",
      "outputs": [
        {
          "name": "bank_address",
          "type": "address"
        },
        {
          "name": "user_address",
          "type": "address"
        },
        {
          "name": "amount",
          "type": "uint256"
        },
        {
          "name": "check",
          "type": "bool"
        },
        {
          "name": "end_time",
          "type": "uint256"
        },
        {
          "name": "year",
          "type": "uint256"
        }
      ],
      "payable": false,
      "stateMutability": "view",
      "type": "function"
    },
    {
      "constant": true,
      "inputs": [
        {
          "name": "",
          "type": "address"
        },
        {
          "name": "",
          "type": "uint256"
        }
      ],
      "name": "bank_owner_clients",
      "outputs": [
        {
          "name": "",
          "type": "address"
        }
      ],
      "payable": false,
      "stateMutability": "view",
      "type": "function"
    },
    {
      "constant": true,
      "inputs": [
        {
          "name": "",
          "type": "address"
        }
      ],
      "name": "loan_get_count",
      "outputs": [
        {
          "name": "",
          "type": "uint256"
        }
      ],
      "payable": false,
      "stateMutability": "view",
      "type": "function"
    },
    {
      "constant": true,
      "inputs": [
        {
          "name": "",
          "type": "address"
        },
        {
          "name": "",
          "type": "uint256"
        }
      ],
      "name": "loan_get_id",
      "outputs": [
        {
          "name": "",
          "type": "uint256"
        }
      ],
      "payable": false,
      "stateMutability": "view",
      "type": "function"
    },
    {
      "constant": false,
      "inputs": [
        {
          "name": "name",
          "type": "string"
        },
        {
          "name": "loan_interst",
          "type": "uint256"
        },
        {
          "name": "fixed_deposit",
          "type": "uint256"
        }
      ],
      "name": "register",
      "outputs": [],
      "payable": true,
      "stateMutability": "payable",
      "type": "function"
    },
    {
      "constant": false,
      "inputs": [],
      "name": "deregister",
      "outputs": [],
      "payable": false,
      "stateMutability": "nonpayable",
      "type": "function"
    },
    {
      "constant": true,
      "inputs": [],
      "name": "show_registers",
      "outputs": [
        {
          "name": "",
          "type": "address[]"
        }
      ],
      "payable": false,
      "stateMutability": "view",
      "type": "function"
    },
    {
      "constant": false,
      "inputs": [
        {
          "name": "addr",
          "type": "address"
        }
      ],
      "name": "deposit",
      "outputs": [],
      "payable": true,
      "stateMutability": "payable",
      "type": "function"
    },
    {
      "constant": false,
      "inputs": [
        {
          "name": "amount",
          "type": "uint256"
        }
      ],
      "name": "withdraw",
      "outputs": [],
      "payable": false,
      "stateMutability": "nonpayable",
      "type": "function"
    },
    {
      "constant": false,
      "inputs": [
        {
          "name": "to",
          "type": "address"
        },
        {
          "name": "amount",
          "type": "uint256"
        }
      ],
      "name": "transfer",
      "outputs": [],
      "payable": false,
      "stateMutability": "nonpayable",
      "type": "function"
    },
    {
      "constant": true,
      "inputs": [],
      "name": "isRegistered",
      "outputs": [
        {
          "name": "",
          "type": "bool"
        }
      ],
      "payable": false,
      "stateMutability": "view",
      "type": "function"
    },
    {
      "constant": false,
      "inputs": [
        {
          "name": "token_address",
          "type": "address"
        },
        {
          "name": "bank_address",
          "type": "address"
        },
        {
          "name": "tokens",
          "type": "uint256"
        },
        {
          "name": "year",
          "type": "uint8"
        }
      ],
      "name": "req_loan",
      "outputs": [],
      "payable": false,
      "stateMutability": "nonpayable",
      "type": "function"
    },
    {
      "constant": false,
      "inputs": [
        {
          "name": "ln_id",
          "type": "uint256"
        }
      ],
      "name": "settlement",
      "outputs": [],
      "payable": false,
      "stateMutability": "nonpayable",
      "type": "function"
    },
    {
      "constant": false,
      "inputs": [
        {
          "name": "ln_id",
          "type": "uint256"
        },
        {
          "name": "value",
          "type": "uint256"
        }
      ],
      "name": "loan_settle",
      "outputs": [],
      "payable": false,
      "stateMutability": "nonpayable",
      "type": "function"
    },
    {
      "constant": false,
      "inputs": [
        {
          "name": "token",
          "type": "address"
        },
        {
          "name": "ad",
          "type": "address"
        }
      ],
      "name": "tok_count",
      "outputs": [],
      "payable": false,
      "stateMutability": "nonpayable",
      "type": "function"
    },
    {
      "constant": false,
      "inputs": [
        {
          "name": "bank_addr",
          "type": "address"
        },
        {
          "name": "year",
          "type": "uint256"
        }
      ],
      "name": "Fixed_Deposit",
      "outputs": [],
      "payable": true,
      "stateMutability": "payable",
      "type": "function"
    },
    {
      "constant": false,
      "inputs": [
        {
          "name": "bank_addr",
          "type": "address"
        }
      ],
      "name": "fixed_amount_get",
      "outputs": [],
      "payable": false,
      "stateMutability": "nonpayable",
      "type": "function"
    },
    {
      "constant": false,
      "inputs": [
        {
          "name": "bank",
          "type": "address"
        },
        {
          "name": "user",
          "type": "address"
        },
        {
          "name": "value",
          "type": "uint256"
        }
      ],
      "name": "fix_settle",
      "outputs": [],
      "payable": false,
      "stateMutability": "nonpayable",
      "type": "function"
    },
    {
      "constant": false,
      "inputs": [
        {
          "name": "user_address",
          "type": "address"
        }
      ],
      "name": "amount_settlement",
      "outputs": [],
      "payable": false,
      "stateMutability": "nonpayable",
      "type": "function"
    },
    {
      "constant": true,
      "inputs": [
        {
          "name": "i",
          "type": "uint256"
        },
        {
          "name": "time",
          "type": "uint256"
        },
        {
          "name": "id",
          "type": "bool"
        }
      ],
      "name": "loan_due_pending",
      "outputs": [
        {
          "name": "",
          "type": "bool"
        },
        {
          "name": "",
          "type": "bool"
        }
      ],
      "payable": false,
      "stateMutability": "view",
      "type": "function"
    }
  ],
  "bytecode": "0x6060604052662386f26fc10000600355341561001a57600080fd5b613b8a806100296000396000f30060606040526004361061016a576000357c0100000000000000000000000000000000000000000000000000000000900463ffffffff1680630df53eb61461016f57806322366844146101c95780632e1a7d4d146101f6578063365a5306146102195780633b6afaa5146103135780633e9d0e391461037d5780634141ee711461048f5780634b5526ba146104dc5780634cb59f7b1461053d57806360ad2391146105935780637413e96a146105b65780637b30ccd5146106035780638e033a7a1461066657806390a4a126146106e857806390a9f83714610735578063974d782414610799578063a9059cbb146107c5578063ac3528b914610807578063aff5edb1146108f2578063b37fb75014610907578063db48e37b14610989578063f01ec380146109d6578063f340fa0114610a0f578063f3da019714610a3d578063f41aa62714610a74578063f488032714610aca578063fc03865514610b22578063fc2ffa5814610b5b575b600080fd5b341561017a57600080fd5b6101a460048080359060200190919080359060200190919080351515906020019091905050610bc8565b6040518083151515158152602001821515151581526020019250505060405180910390f35b34156101d457600080fd5b6101dc610cff565b604051808215151515815260200191505060405180910390f35b341561020157600080fd5b6102176004808035906020019091905050610dca565b005b341561022457600080fd5b61023a6004808035906020019091905050610e5c565b604051808b81526020018a73ffffffffffffffffffffffffffffffffffffffff1673ffffffffffffffffffffffffffffffffffffffff1681526020018973ffffffffffffffffffffffffffffffffffffffff1673ffffffffffffffffffffffffffffffffffffffff1681526020018873ffffffffffffffffffffffffffffffffffffffff1673ffffffffffffffffffffffffffffffffffffffff1681526020018781526020018681526020018581526020018481526020018381526020018281526020019a505050505050505050505060405180910390f35b341561031e57600080fd5b610326610f10565b6040518080602001828103825283818151815260200191508051906020019060200280838360005b8381101561036957808201518184015260208101905061034e565b505050509050019250505060405180910390f35b341561038857600080fd5b6103b4600480803573ffffffffffffffffffffffffffffffffffffffff16906020019091905050610fa4565b60405180806020018b81526020018a15151515815260200189815260200188815260200187815260200186815260200185815260200184815260200183815260200182810382528c8181546001816001161561010002031660029004815260200191508054600181600116156101000203166002900480156104775780601f1061044c57610100808354040283529160200191610477565b820191906000526020600020905b81548152906001019060200180831161045a57829003601f168201915b50509b50505050505050505050505060405180910390f35b341561049a57600080fd5b6104c6600480803573ffffffffffffffffffffffffffffffffffffffff16906020019091905050611004565b6040518082815260200191505060405180910390f35b34156104e757600080fd5b61053b600480803573ffffffffffffffffffffffffffffffffffffffff1690602001909190803573ffffffffffffffffffffffffffffffffffffffff1690602001909190803590602001909190505061101c565b005b341561054857600080fd5b61057d600480803573ffffffffffffffffffffffffffffffffffffffff1690602001909190803590602001909190505061123a565b6040518082815260200191505060405180910390f35b341561059e57600080fd5b6105b4600480803590602001909190505061125f565b005b34156105c157600080fd5b6105ed600480803573ffffffffffffffffffffffffffffffffffffffff16906020019091905050611803565b6040518082815260200191505060405180910390f35b341561060e57600080fd5b610624600480803590602001909190505061181b565b604051808273ffffffffffffffffffffffffffffffffffffffff1673ffffffffffffffffffffffffffffffffffffffff16815260200191505060405180910390f35b341561067157600080fd5b6106a6600480803573ffffffffffffffffffffffffffffffffffffffff1690602001909190803590602001909190505061185a565b604051808273ffffffffffffffffffffffffffffffffffffffff1673ffffffffffffffffffffffffffffffffffffffff16815260200191505060405180910390f35b34156106f357600080fd5b61071f600480803573ffffffffffffffffffffffffffffffffffffffff1690602001909190505061189c565b6040518082815260200191505060405180910390f35b610797600480803590602001908201803590602001908080601f016020809104026020016040519081016040528093929190818152602001838380828437820191505050505050919080359060200190919080359060200190919050506118b4565b005b34156107a457600080fd5b6107c36004808035906020019091908035906020019091905050611b7d565b005b34156107d057600080fd5b610805600480803573ffffffffffffffffffffffffffffffffffffffff16906020019091908035906020019091905050611efb565b005b341561081257600080fd5b61085d600480803573ffffffffffffffffffffffffffffffffffffffff1690602001909190803573ffffffffffffffffffffffffffffffffffffffff1690602001909190505061206e565b604051808773ffffffffffffffffffffffffffffffffffffffff1673ffffffffffffffffffffffffffffffffffffffff1681526020018673ffffffffffffffffffffffffffffffffffffffff1673ffffffffffffffffffffffffffffffffffffffff16815260200185815260200184151515158152602001838152602001828152602001965050505050505060405180910390f35b34156108fd57600080fd5b610905612104565b005b341561091257600080fd5b610947600480803573ffffffffffffffffffffffffffffffffffffffff169060200190919080359060200190919050506124d3565b604051808273ffffffffffffffffffffffffffffffffffffffff1673ffffffffffffffffffffffffffffffffffffffff16815260200191505060405180910390f35b341561099457600080fd5b6109c0600480803573ffffffffffffffffffffffffffffffffffffffff16906020019091905050612515565b6040518082815260200191505060405180910390f35b34156109e157600080fd5b610a0d600480803573ffffffffffffffffffffffffffffffffffffffff1690602001909190505061252d565b005b610a3b600480803573ffffffffffffffffffffffffffffffffffffffff1690602001909190505061275f565b005b610a72600480803573ffffffffffffffffffffffffffffffffffffffff169060200190919080359060200190919050506127b1565b005b3415610a7f57600080fd5b610ab4600480803573ffffffffffffffffffffffffffffffffffffffff16906020019091908035906020019091905050613030565b6040518082815260200191505060405180910390f35b3415610ad557600080fd5b610b20600480803573ffffffffffffffffffffffffffffffffffffffff1690602001909190803573ffffffffffffffffffffffffffffffffffffffff16906020019091905050613055565b005b3415610b2d57600080fd5b610b59600480803573ffffffffffffffffffffffffffffffffffffffff1690602001909190505061315c565b005b3415610b6657600080fd5b610bc6600480803573ffffffffffffffffffffffffffffffffffffffff1690602001909190803573ffffffffffffffffffffffffffffffffffffffff1690602001909190803590602001909190803560ff169060200190919050506132da565b005b6000806000806000600115158615151415610be557879250610c39565b600560003373ffffffffffffffffffffffffffffffffffffffff1673ffffffffffffffffffffffffffffffffffffffff16815260200190815260200160002060008981526020019081526020016000205492505b603c60046000858152602001908152602001600020600601540387101515610cee5786603c60046000868152602001908152602001600020600601540311158015610c9a575060046000848152602001908152602001600020600601548711155b15610cc857600060046000858152602001908152602001600020600801541115610cc357600191505b610ced565b600060046000858152602001908152602001600020600801541115610cec57600190505b5b5b818194509450505050935093915050565b60006040518060000190506040518091039020600019166000803373ffffffffffffffffffffffffffffffffffffffff1673ffffffffffffffffffffffffffffffffffffffff1681526020019081526020016000206000016040518082805460018160011615610100020316600290048015610db25780601f10610d90576101008083540402835291820191610db2565b820191906000526020600020905b815481529060010190602001808311610d9e575b50509150506040518091039020600019161415905090565b806000803373ffffffffffffffffffffffffffffffffffffffff1673ffffffffffffffffffffffffffffffffffffffff168152602001908152602001600020600101600082825403925050819055503373ffffffffffffffffffffffffffffffffffffffff166108fc829081150290604051600060405180830381858888f193505050501515610e5957600080fd5b50565b60046020528060005260406000206000915090508060000154908060010160009054906101000a900473ffffffffffffffffffffffffffffffffffffffff16908060020160009054906101000a900473ffffffffffffffffffffffffffffffffffffffff16908060030160009054906101000a900473ffffffffffffffffffffffffffffffffffffffff1690806004015490806005015490806006015490806007015490806008015490806009015490508a565b610f18613a79565b6001805480602002602001604051908101604052809291908181526020018280548015610f9a57602002820191906000526020600020905b8160009054906101000a900473ffffffffffffffffffffffffffffffffffffffff1673ffffffffffffffffffffffffffffffffffffffff1681526020019060010190808311610f50575b5050505050905090565b600060205280600052604060002060009150905080600001908060010154908060020160009054906101000a900460ff1690806003015490806004015490806005015490806006015490806007015490806008015490806009015490508a565b60086020528060005260406000206000915090505481565b6000808473ffffffffffffffffffffffffffffffffffffffff1673ffffffffffffffffffffffffffffffffffffffff16815260200190815260200160002060010154811115151561106c57600080fd5b806000808573ffffffffffffffffffffffffffffffffffffffff1673ffffffffffffffffffffffffffffffffffffffff168152602001908152602001600020600101600082825403925050819055503373ffffffffffffffffffffffffffffffffffffffff166108fc829081150290604051600060405180830381858888f1935050505015156110fb57600080fd5b600f546000808473ffffffffffffffffffffffffffffffffffffffff1673ffffffffffffffffffffffffffffffffffffffff16815260200190815260200160002060090160008282540392505081905550600f546000808573ffffffffffffffffffffffffffffffffffffffff1673ffffffffffffffffffffffffffffffffffffffff168152602001908152602001600020600801600082825403925050819055506000600960008573ffffffffffffffffffffffffffffffffffffffff1673ffffffffffffffffffffffffffffffffffffffff16815260200190815260200160002060008473ffffffffffffffffffffffffffffffffffffffff1673ffffffffffffffffffffffffffffffffffffffff16815260200190815260200160002060030160006101000a81548160ff021916908315150217905550505050565b6007602052816000526040600020602052806000526040600020600091509150505481565b60046000828152602001908152602001600020600701546004600083815260200190815260200160002060050154101561132b5742603c600460008481526020019081526020016000206006015403111580156112d2575060046000828152602001908152602001600020600601544211155b156112fc576112f7816004600084815260200190815260200160002060090154611b7d565b611326565b61132581662386f26fc10000600460008581526020019081526020016000206009015401611b7d565b5b611800565b6004600082815260200190815260200160002060070154600460008381526020019081526020016000206005015414156117ff5760046000828152602001908152602001600020600801546000803373ffffffffffffffffffffffffffffffffffffffff1673ffffffffffffffffffffffffffffffffffffffff1681526020019081526020016000206001016000828254039250508190555060046000828152602001908152602001600020600801546000806004600085815260200190815260200160002060010160009054906101000a900473ffffffffffffffffffffffffffffffffffffffff1673ffffffffffffffffffffffffffffffffffffffff1673ffffffffffffffffffffffffffffffffffffffff1681526020019081526020016000206001016000828254019250508190555060046000828152602001908152602001600020600801546000803373ffffffffffffffffffffffffffffffffffffffff1673ffffffffffffffffffffffffffffffffffffffff1681526020019081526020016000206006016000828254039250508190555060046000828152602001908152602001600020600801546000806004600085815260200190815260200160002060010160009054906101000a900473ffffffffffffffffffffffffffffffffffffffff1673ffffffffffffffffffffffffffffffffffffffff1673ffffffffffffffffffffffffffffffffffffffff16815260200190815260200160002060070160008282540392505081905550600460008281526020019081526020016000206008015460046000838152602001908152602001600020600801600082825403925050819055506004600082815260200190815260200160002060030160009054906101000a900473ffffffffffffffffffffffffffffffffffffffff1673ffffffffffffffffffffffffffffffffffffffff166323b872dd6004600084815260200190815260200160002060010160009054906101000a900473ffffffffffffffffffffffffffffffffffffffff1633600354600460008781526020019081526020016000206004015481151561164657fe5b046000604051602001526040518463ffffffff167c0100000000000000000000000000000000000000000000000000000000028152600401808473ffffffffffffffffffffffffffffffffffffffff1673ffffffffffffffffffffffffffffffffffffffff1681526020018373ffffffffffffffffffffffffffffffffffffffff1673ffffffffffffffffffffffffffffffffffffffff1681526020018281526020019350505050602060405180830381600087803b151561170757600080fd5b6102c65a03f1151561171857600080fd5b50505060405180519050506117636004600083815260200190815260200160002060030160009054906101000a900473ffffffffffffffffffffffffffffffffffffffff1633613055565b6117d96004600083815260200190815260200160002060030160009054906101000a900473ffffffffffffffffffffffffffffffffffffffff166004600084815260200190815260200160002060010160009054906101000a900473ffffffffffffffffffffffffffffffffffffffff16613055565b600160046000838152602001908152602001600020600501600082825401925050819055505b5b50565b600b6020528060005260406000206000915090505481565b60018181548110151561182a57fe5b90600052602060002090016000915054906101000a900473ffffffffffffffffffffffffffffffffffffffff1681565b600c6020528160005260406000206020528060005260406000206000915091509054906101000a900473ffffffffffffffffffffffffffffffffffffffff1681565b600d6020528060005260406000206000915090505481565b6040518060000190506040518091039020600019166000803373ffffffffffffffffffffffffffffffffffffffff1673ffffffffffffffffffffffffffffffffffffffff16815260200190815260200160002060000160405180828054600181600116156101000203166002900480156119655780601f10611943576101008083540402835291820191611965565b820191906000526020600020905b815481529060010190602001808311611951575b50509150506040518091039020600019161415611b7857826000803373ffffffffffffffffffffffffffffffffffffffff1673ffffffffffffffffffffffffffffffffffffffff16815260200190815260200160002060000190805190602001906119d1929190613a8d565b50816000803373ffffffffffffffffffffffffffffffffffffffff1673ffffffffffffffffffffffffffffffffffffffff16815260200190815260200160002060030181905550806000803373ffffffffffffffffffffffffffffffffffffffff1673ffffffffffffffffffffffffffffffffffffffff16815260200190815260200160002060040181905550600015156000803373ffffffffffffffffffffffffffffffffffffffff1673ffffffffffffffffffffffffffffffffffffffff16815260200190815260200160002060020160009054906101000a900460ff1615151415611b775760016000803373ffffffffffffffffffffffffffffffffffffffff1673ffffffffffffffffffffffffffffffffffffffff16815260200190815260200160002060020160006101000a81548160ff02191690831515021790555060018054806001018281611b279190613b0d565b9160005260206000209001600033909190916101000a81548173ffffffffffffffffffffffffffffffffffffffff021916908373ffffffffffffffffffffffffffffffffffffffff160217905550505b5b505050565b6000803373ffffffffffffffffffffffffffffffffffffffff1673ffffffffffffffffffffffffffffffffffffffff168152602001908152602001600020600101548111151515611bcd57600080fd5b611c0d6004600084815260200190815260200160002060010160009054906101000a900473ffffffffffffffffffffffffffffffffffffffff1682611efb565b60046000838152602001908152602001600020600701546004600084815260200190815260200160002060040154811515611c4457fe5b046000803373ffffffffffffffffffffffffffffffffffffffff1673ffffffffffffffffffffffffffffffffffffffff1681526020019081526020016000206006016000828254039250508190555060046000838152602001908152602001600020600701546004600084815260200190815260200160002060040154811515611cca57fe5b046000806004600086815260200190815260200160002060010160009054906101000a900473ffffffffffffffffffffffffffffffffffffffff1673ffffffffffffffffffffffffffffffffffffffff1673ffffffffffffffffffffffffffffffffffffffff1681526020019081526020016000206007016000828254039250508190555060046000838152602001908152602001600020600701546004600084815260200190815260200160002060040154811515611d8657fe5b0460046000848152602001908152602001600020600801600082825403925050819055506064806000806004600087815260200190815260200160002060010160009054906101000a900473ffffffffffffffffffffffffffffffffffffffff1673ffffffffffffffffffffffffffffffffffffffff1673ffffffffffffffffffffffffffffffffffffffff16815260200190815260200160002060030154811515611e2e57fe5b04600460008581526020019081526020016000206008015402811515611e5057fe5b04600e8190555060046000838152602001908152602001600020600701546004600084815260200190815260200160002060040154811515611e8e57fe5b04600e54016004600084815260200190815260200160002060090181905550603c6004600084815260200190815260200160002060060160008282540192505081905550600160046000848152602001908152602001600020600501600082825401925050819055505050565b816040518060000190506040518091039020600019166000808373ffffffffffffffffffffffffffffffffffffffff1673ffffffffffffffffffffffffffffffffffffffff1681526020019081526020016000206000016040518082805460018160011615610100020316600290048015611fad5780601f10611f8b576101008083540402835291820191611fad565b820191906000526020600020905b815481529060010190602001808311611f99575b505091505060405180910390206000191614151515611fcb57600080fd5b816000808573ffffffffffffffffffffffffffffffffffffffff1673ffffffffffffffffffffffffffffffffffffffff16815260200190815260200160002060010160008282540192505081905550816000803373ffffffffffffffffffffffffffffffffffffffff1673ffffffffffffffffffffffffffffffffffffffff16815260200190815260200160002060010160008282540392505081905550505050565b6009602052816000526040600020602052806000526040600020600091509150508060000160009054906101000a900473ffffffffffffffffffffffffffffffffffffffff16908060010160009054906101000a900473ffffffffffffffffffffffffffffffffffffffff16908060020154908060030160009054906101000a900460ff16908060040154908060050154905086565b336040518060000190506040518091039020600019166000808373ffffffffffffffffffffffffffffffffffffffff1673ffffffffffffffffffffffffffffffffffffffff16815260200190815260200160002060000160405180828054600181600116156101000203166002900480156121b65780601f106121945761010080835404028352918201916121b6565b820191906000526020600020905b8154815290600101906020018083116121a2575b5050915050604051809103902060001916141515156121d457600080fd5b60008060003373ffffffffffffffffffffffffffffffffffffffff1673ffffffffffffffffffffffffffffffffffffffff1681526020019081526020016000206006015414151561222457600080fd5b60008060003373ffffffffffffffffffffffffffffffffffffffff1673ffffffffffffffffffffffffffffffffffffffff1681526020019081526020016000206007015414151561227457600080fd5b60008060003373ffffffffffffffffffffffffffffffffffffffff1673ffffffffffffffffffffffffffffffffffffffff168152602001908152602001600020600801541415156122c457600080fd5b60008060003373ffffffffffffffffffffffffffffffffffffffff1673ffffffffffffffffffffffffffffffffffffffff1681526020019081526020016000206009015414151561231457600080fd5b3373ffffffffffffffffffffffffffffffffffffffff166108fc6000803373ffffffffffffffffffffffffffffffffffffffff1673ffffffffffffffffffffffffffffffffffffffff168152602001908152602001600020600101549081150290604051600060405180830381858888f19350505050151561239557600080fd5b60206040519081016040528060008152506000803373ffffffffffffffffffffffffffffffffffffffff1673ffffffffffffffffffffffffffffffffffffffff16815260200190815260200160002060000190805190602001906123fa929190613a8d565b5060008060003373ffffffffffffffffffffffffffffffffffffffff1673ffffffffffffffffffffffffffffffffffffffff1681526020019081526020016000206003018190555060008060003373ffffffffffffffffffffffffffffffffffffffff1673ffffffffffffffffffffffffffffffffffffffff1681526020019081526020016000206004018190555060008060003373ffffffffffffffffffffffffffffffffffffffff1673ffffffffffffffffffffffffffffffffffffffff1681526020019081526020016000206001018190555050565b600a6020528160005260406000206020528060005260406000206000915091509054906101000a900473ffffffffffffffffffffffffffffffffffffffff1681565b60066020528060005260406000206000915090505481565b600960008273ffffffffffffffffffffffffffffffffffffffff1673ffffffffffffffffffffffffffffffffffffffff16815260200190815260200160002060003373ffffffffffffffffffffffffffffffffffffffff1673ffffffffffffffffffffffffffffffffffffffff16815260200190815260200160002060020154600f81905550600960008273ffffffffffffffffffffffffffffffffffffffff1673ffffffffffffffffffffffffffffffffffffffff16815260200190815260200160002060003373ffffffffffffffffffffffffffffffffffffffff1673ffffffffffffffffffffffffffffffffffffffff1681526020019081526020016000206004015442101515612735576064806000808473ffffffffffffffffffffffffffffffffffffffff1673ffffffffffffffffffffffffffffffffffffffff1681526020019081526020016000206004015481151561268957fe5b04600960008473ffffffffffffffffffffffffffffffffffffffff1673ffffffffffffffffffffffffffffffffffffffff16815260200190815260200160002060003373ffffffffffffffffffffffffffffffffffffffff1673ffffffffffffffffffffffffffffffffffffffff16815260200190815260200160002060050154600f54020281151561271857fe5b04600f5401601081905550612730813360105461101c565b61275c565b6064600f5481151561274357fe5b04600f540360108190555061275b813360105461101c565b5b50565b346000808373ffffffffffffffffffffffffffffffffffffffff1673ffffffffffffffffffffffffffffffffffffffff1681526020019081526020016000206001016000828254019250508190555050565b816040518060000190506040518091039020600019166000808373ffffffffffffffffffffffffffffffffffffffff1673ffffffffffffffffffffffffffffffffffffffff16815260200190815260200160002060000160405180828054600181600116156101000203166002900480156128635780601f10612841576101008083540402835291820191612863565b820191906000526020600020905b81548152906001019060200180831161284f575b50509150506040518091039020600019161415151561288157600080fd5b60001515600960008573ffffffffffffffffffffffffffffffffffffffff1673ffffffffffffffffffffffffffffffffffffffff16815260200190815260200160002060003373ffffffffffffffffffffffffffffffffffffffff1673ffffffffffffffffffffffffffffffffffffffff16815260200190815260200160002060030160009054906101000a900460ff16151514151561292057600080fd5b82600960008573ffffffffffffffffffffffffffffffffffffffff1673ffffffffffffffffffffffffffffffffffffffff16815260200190815260200160002060003373ffffffffffffffffffffffffffffffffffffffff1673ffffffffffffffffffffffffffffffffffffffff16815260200190815260200160002060000160006101000a81548173ffffffffffffffffffffffffffffffffffffffff021916908373ffffffffffffffffffffffffffffffffffffffff16021790555033600960008573ffffffffffffffffffffffffffffffffffffffff1673ffffffffffffffffffffffffffffffffffffffff16815260200190815260200160002060003373ffffffffffffffffffffffffffffffffffffffff1673ffffffffffffffffffffffffffffffffffffffff16815260200190815260200160002060010160006101000a81548173ffffffffffffffffffffffffffffffffffffffff021916908373ffffffffffffffffffffffffffffffffffffffff16021790555033600a60008573ffffffffffffffffffffffffffffffffffffffff1673ffffffffffffffffffffffffffffffffffffffff1681526020019081526020016000206000600b60008773ffffffffffffffffffffffffffffffffffffffff1673ffffffffffffffffffffffffffffffffffffffff16815260200190815260200160002054815260200190815260200160002060006101000a81548173ffffffffffffffffffffffffffffffffffffffff021916908373ffffffffffffffffffffffffffffffffffffffff16021790555082600c60003373ffffffffffffffffffffffffffffffffffffffff1673ffffffffffffffffffffffffffffffffffffffff1681526020019081526020016000206000600d60003373ffffffffffffffffffffffffffffffffffffffff1673ffffffffffffffffffffffffffffffffffffffff16815260200190815260200160002054815260200190815260200160002060006101000a81548173ffffffffffffffffffffffffffffffffffffffff021916908373ffffffffffffffffffffffffffffffffffffffff1602179055506000600960008573ffffffffffffffffffffffffffffffffffffffff1673ffffffffffffffffffffffffffffffffffffffff16815260200190815260200160002060003373ffffffffffffffffffffffffffffffffffffffff1673ffffffffffffffffffffffffffffffffffffffff168152602001908152602001600020600201541415612d5d576001600b60008573ffffffffffffffffffffffffffffffffffffffff1673ffffffffffffffffffffffffffffffffffffffff168152602001908152602001600020600082825401925050819055506001600d60003373ffffffffffffffffffffffffffffffffffffffff1673ffffffffffffffffffffffffffffffffffffffff168152602001908152602001600020600082825401925050819055505b612d668361275f565b346000808573ffffffffffffffffffffffffffffffffffffffff1673ffffffffffffffffffffffffffffffffffffffff16815260200190815260200160002060080160008282540192505081905550346000803373ffffffffffffffffffffffffffffffffffffffff1673ffffffffffffffffffffffffffffffffffffffff1681526020019081526020016000206009016000828254019250508190555034600960008573ffffffffffffffffffffffffffffffffffffffff1673ffffffffffffffffffffffffffffffffffffffff16815260200190815260200160002060003373ffffffffffffffffffffffffffffffffffffffff1673ffffffffffffffffffffffffffffffffffffffff1681526020019081526020016000206002018190555060784201600960008573ffffffffffffffffffffffffffffffffffffffff1673ffffffffffffffffffffffffffffffffffffffff16815260200190815260200160002060003373ffffffffffffffffffffffffffffffffffffffff1673ffffffffffffffffffffffffffffffffffffffff1681526020019081526020016000206004018190555081600960008573ffffffffffffffffffffffffffffffffffffffff1673ffffffffffffffffffffffffffffffffffffffff16815260200190815260200160002060003373ffffffffffffffffffffffffffffffffffffffff1673ffffffffffffffffffffffffffffffffffffffff168152602001908152602001600020600501819055506001600960008573ffffffffffffffffffffffffffffffffffffffff1673ffffffffffffffffffffffffffffffffffffffff16815260200190815260200160002060003373ffffffffffffffffffffffffffffffffffffffff1673ffffffffffffffffffffffffffffffffffffffff16815260200190815260200160002060030160006101000a81548160ff021916908315150217905550505050565b6005602052816000526040600020602052806000526040600020600091509150505481565b8173ffffffffffffffffffffffffffffffffffffffff166370a08231826000604051602001526040518263ffffffff167c0100000000000000000000000000000000000000000000000000000000028152600401808273ffffffffffffffffffffffffffffffffffffffff1673ffffffffffffffffffffffffffffffffffffffff168152602001915050602060405180830381600087803b15156130f857600080fd5b6102c65a03f1151561310957600080fd5b505050604051805190506000808373ffffffffffffffffffffffffffffffffffffffff1673ffffffffffffffffffffffffffffffffffffffff168152602001908152602001600020600501819055505050565b600960003373ffffffffffffffffffffffffffffffffffffffff1673ffffffffffffffffffffffffffffffffffffffff16815260200190815260200160002060008273ffffffffffffffffffffffffffffffffffffffff1673ffffffffffffffffffffffffffffffffffffffff16815260200190815260200160002060020154600f819055506064806000803373ffffffffffffffffffffffffffffffffffffffff1673ffffffffffffffffffffffffffffffffffffffff1681526020019081526020016000206004015481151561323057fe5b04600960003373ffffffffffffffffffffffffffffffffffffffff1673ffffffffffffffffffffffffffffffffffffffff16815260200190815260200160002060008473ffffffffffffffffffffffffffffffffffffffff1673ffffffffffffffffffffffffffffffffffffffff16815260200190815260200160002060050154600f5402028115156132bf57fe5b04600f54016010819055506132d7338260105461101c565b50565b826040518060000190506040518091039020600019166000808373ffffffffffffffffffffffffffffffffffffffff1673ffffffffffffffffffffffffffffffffffffffff168152602001908152602001600020600001604051808280546001816001161561010002031660029004801561338c5780601f1061336a57610100808354040283529182019161338c565b820191906000526020600020905b815481529060010190602001808311613378575b5050915050604051809103902060001916141515156133aa57600080fd5b82600354026000808673ffffffffffffffffffffffffffffffffffffffff1673ffffffffffffffffffffffffffffffffffffffff168152602001908152602001600020600101541115156133fd57600080fd5b8473ffffffffffffffffffffffffffffffffffffffff166323b872dd3386866000604051602001526040518463ffffffff167c0100000000000000000000000000000000000000000000000000000000028152600401808473ffffffffffffffffffffffffffffffffffffffff1673ffffffffffffffffffffffffffffffffffffffff1681526020018373ffffffffffffffffffffffffffffffffffffffff1673ffffffffffffffffffffffffffffffffffffffff1681526020018281526020019350505050602060405180830381600087803b15156134dc57600080fd5b6102c65a03f115156134ed57600080fd5b505050604051805190505082600354026000808673ffffffffffffffffffffffffffffffffffffffff1673ffffffffffffffffffffffffffffffffffffffff1681526020019081526020016000206001016000828254039250508190555082600354026000803373ffffffffffffffffffffffffffffffffffffffff1673ffffffffffffffffffffffffffffffffffffffff1681526020019081526020016000206001016000828254019250508190555082600354026000803373ffffffffffffffffffffffffffffffffffffffff1673ffffffffffffffffffffffffffffffffffffffff1681526020019081526020016000206006016000828254019250508190555082600354026000808673ffffffffffffffffffffffffffffffffffffffff1673ffffffffffffffffffffffffffffffffffffffff1681526020019081526020016000206007016000828254019250508190555061364e8533613055565b6136588585613055565b6064806000808773ffffffffffffffffffffffffffffffffffffffff1673ffffffffffffffffffffffffffffffffffffffff168152602001908152602001600020600301548115156136a657fe5b048460035402028115156136b657fe5b04600e81905550600254600560003373ffffffffffffffffffffffffffffffffffffffff1673ffffffffffffffffffffffffffffffffffffffff1681526020019081526020016000206000600660003373ffffffffffffffffffffffffffffffffffffffff1673ffffffffffffffffffffffffffffffffffffffff16815260200190815260200160002054815260200190815260200160002081905550600660003373ffffffffffffffffffffffffffffffffffffffff1673ffffffffffffffffffffffffffffffffffffffff16815260200190815260200160002060008154809291906001019190505550600254600760008673ffffffffffffffffffffffffffffffffffffffff1673ffffffffffffffffffffffffffffffffffffffff1681526020019081526020016000206000600860008873ffffffffffffffffffffffffffffffffffffffff1673ffffffffffffffffffffffffffffffffffffffff16815260200190815260200160002054815260200190815260200160002081905550600860008573ffffffffffffffffffffffffffffffffffffffff1673ffffffffffffffffffffffffffffffffffffffff16815260200190815260200160002060008154809291906001019190505550600254600460006002548152602001908152602001600020600001819055508360046000600254815260200190815260200160002060010160006101000a81548173ffffffffffffffffffffffffffffffffffffffff021916908373ffffffffffffffffffffffffffffffffffffffff1602179055503360046000600254815260200190815260200160002060020160006101000a81548173ffffffffffffffffffffffffffffffffffffffff021916908373ffffffffffffffffffffffffffffffffffffffff1602179055508460046000600254815260200190815260200160002060030160006101000a81548173ffffffffffffffffffffffffffffffffffffffff021916908373ffffffffffffffffffffffffffffffffffffffff1602179055508260035402600460006002548152602001908152602001600020600401819055506078420160046000600254815260200190815260200160002060060181905550600c820260ff1660046000600254815260200190815260200160002060070181905550826003540260046000600254815260200190815260200160002060080181905550600c820260ff168360035402811515613a4557fe5b04600e5401600460006002548152602001908152602001600020600901819055506001600254016002819055505050505050565b602060405190810160405280600081525090565b828054600181600116156101000203166002900490600052602060002090601f016020900481019282601f10613ace57805160ff1916838001178555613afc565b82800160010185558215613afc579182015b82811115613afb578251825591602001919060010190613ae0565b5b509050613b099190613b39565b5090565b815481835581811511613b3457818360005260206000209182019101613b339190613b39565b5b505050565b613b5b91905b80821115613b57576000816000905550600101613b3f565b5090565b905600a165627a7a723058203ab3cee72d86546625afa9207b18beadb8c47179060132b71171903a76ee7c6a0029",
  "source": "//   0x35be8516a0dedd62c33f7067defaeb79529a71f4\r\n\r\n// contract   0x8a7a2a02021898033f36d85638b056f8ca8f792c\r\n\r\n\r\npragma solidity ^0.4.0;\r\ncontract ERC20  \r\n{\r\n  function allowance(address owner, address spender) public view returns (uint256);\r\n  function transferFrom(address from, address to, uint256 value) public returns (bool);\r\n  function approve(address spender, uint256 value) public returns (bool);\r\n  event Approval(address indexed owner, address indexed spender, uint256 value);\r\n  function totalSupply() public view returns (uint256);\r\n  function balanceOf(address who) public view returns (uint256);\r\n  function transfer(address to, uint256 value) public returns (bool);\r\n  event Transfer(address indexed from, address indexed to, uint256 value);\r\n}\r\n\r\n\r\ncontract Bank \r\n{\r\n    \r\n    //Register contract Details\r\n    struct bank_Details\r\n    {\r\n        string name;\r\n        uint bal;\r\n        bool status;\r\n        uint loan_interst;\r\n        uint fixed_deposit_interst;\r\n        // uint account_deposit_interst;\r\n        uint token_count;\r\n        uint borrow_amount;\r\n        uint lend_amount;\r\n        uint fixed_amount_bank;\r\n        uint fixed_amount_user;\r\n    }\r\n    \r\n    mapping(address => bank_Details) public bank_d1;\r\n    address[] public reg_user;\r\n    \r\n    \r\n    //Loan_Details contract Details\r\n    \r\n    uint loan_count;\r\n    uint eth= 0.01 ether;\r\n\r\n    struct loan_details\r\n    {\r\n        uint loan_id;\r\n        address lender_address;\r\n        address borrower_address;\r\n        address token_address;\r\n        uint amount;\r\n        uint settle_count;\r\n        uint next_settle_time;\r\n        //uint tokens;\r\n        uint months;\r\n        uint bal_loan;\r\n        uint current_installment;\r\n    }\r\n    \r\n    mapping(uint => loan_details) public loan;\r\n    //mapping (address => mapping(address => mapping(uint256 => loan_details))) public loan;\r\n    \r\n    mapping(address => mapping(uint => uint)) public loan_get_id;\r\n    mapping(address => uint256) public loan_get_count;\r\n    \r\n    mapping(address => mapping(uint => uint)) public loan_pro_id;\r\n    mapping(address => uint256) public loan_pro_count;\r\n\r\n    \r\n    //Fixed_Deposit contract Details\r\n    struct Bank_Client\r\n    {\r\n        address bank_address;\r\n        address user_address;\r\n        uint256 amount;\r\n        bool check;\r\n        uint256 end_time;\r\n        uint256 year;\r\n        \r\n    }\r\n\r\n    mapping(address => mapping(address => Bank_Client)) public bank_client_Details;\r\n\r\n    //Bank can stores the users details\r\n    mapping(address => mapping(uint256 => address)) public bank_owner_clients;\r\n    mapping(address => uint256) public bank_client_count;\r\n\r\n    //User can stores the deposited bank details\r\n    mapping(address => mapping(uint256 => address)) public my_acc_details;\r\n    mapping(address => uint256) public my_acc_count;\r\n\r\n    \r\n    uint amont;\r\n    uint256 temp_amount;\r\n    uint256 temp_int_amt;\r\n    // uint256 temp_interest;\r\n    //uint256 temp_year;\r\n    \r\n\r\n    //Register contract functions\r\n    function register(string name, uint loan_interst, uint fixed_deposit /*, uint acc_dep_int */) public payable\r\n    {\r\n        if(keccak256(bank_d1[msg.sender].name)==keccak256(\"\"))\r\n        {\r\n            bank_d1[msg.sender].name = name;\r\n            bank_d1[msg.sender].loan_interst = loan_interst;\r\n            bank_d1[msg.sender].fixed_deposit_interst = fixed_deposit;\r\n            // bank_d1[msg.sender].account_deposit_interst = acc_dep_int;\r\n        \r\n            if(bank_d1[msg.sender].status == false)\r\n            {\r\n                bank_d1[msg.sender].status = true;\r\n                reg_user.push(msg.sender);\r\n            }\r\n        }\r\n    }\r\n\r\n    function deregister() ch_register(msg.sender) public\r\n    {\r\n        require(bank_d1[msg.sender].borrow_amount == 0);\r\n        require(bank_d1[msg.sender].lend_amount == 0);\r\n        require(bank_d1[msg.sender].fixed_amount_bank == 0);\r\n        require(bank_d1[msg.sender].fixed_amount_user == 0);\r\n\r\n        msg.sender.transfer(bank_d1[msg.sender].bal);\r\n\r\n        bank_d1[msg.sender].name = \"\";\r\n        bank_d1[msg.sender].loan_interst = 0;\r\n        bank_d1[msg.sender].fixed_deposit_interst = 0;\r\n        // bank_d1[msg.sender].account_deposit_interst = 0;\r\n        bank_d1[msg.sender].bal = 0;\r\n        \r\n    }\r\n  \r\n    function show_registers() public view returns(address[])\r\n    {\r\n        return reg_user;\r\n    }\r\n\r\n\r\n    //Bank Contract Basic functions\r\n    modifier ch_register(address add)\r\n    {\r\n        require(keccak256(bank_d1[add].name) != keccak256(\"\"));\r\n        _;\r\n    }\r\n   \r\n    function deposit(address addr)  public payable                      //modified\r\n    {\r\n        bank_d1[addr].bal += msg.value;\r\n    }\r\n   \r\n    function withdraw(uint256 amount) public\r\n    {\r\n        bank_d1[msg.sender].bal -= amount;\r\n        msg.sender.transfer(amount);\r\n    }\r\n   \r\n    function transfer(address to,uint256 amount) public ch_register(to)\r\n    {  \r\n        bank_d1[to].bal += amount;\r\n        bank_d1[msg.sender].bal -= amount; //amount transfered to other persion bank address\r\n        //to.transfer(amount);\r\n    }\r\n    \r\n    \r\n    function isRegistered()public constant returns (bool) {\r\n      return keccak256(bank_d1[msg.sender].name) != keccak256(\"\");\r\n    }\r\n\r\n\r\n\r\n    //Loan_Details contract functions\r\n    \r\n    function req_loan(address token_address,address bank_address,uint256 tokens,uint8 year) public ch_register(bank_address) //payable\r\n    {\r\n        //require(bank_address!=msg.sender);\r\n        \r\n        require (bank_d1[bank_address].bal > (eth * tokens) );\r\n        \r\n        ERC20(token_address).transferFrom(msg.sender,bank_address,tokens);\r\n        \r\n        bank_d1[bank_address].bal -= (eth * tokens);\r\n        bank_d1[msg.sender].bal += (eth * tokens);\r\n        //msg.sender.transfer((eth * tokens));\r\n        \r\n        \r\n        bank_d1[msg.sender].borrow_amount += (eth * tokens);\r\n        bank_d1[bank_address].lend_amount += (eth * tokens);\r\n\r\n        tok_count(token_address,msg.sender);\r\n        tok_count(token_address,bank_address);\r\n\r\n        amont = ( (eth * tokens) * ((bank_d1[bank_address].loan_interst) / 100) ) /100;\r\n        \r\n        loan_get_id[msg.sender][ loan_get_count[msg.sender] ] = loan_count;\r\n        loan_get_count[msg.sender]++;\r\n        loan_pro_id[bank_address][ loan_pro_count[bank_address] ] = loan_count;\r\n        loan_pro_count[bank_address]++;\r\n        \r\n        \r\n        loan[loan_count].loan_id = loan_count;\r\n        loan[loan_count].lender_address = bank_address;\r\n        loan[loan_count].borrower_address = msg.sender;\r\n        loan[loan_count].token_address = token_address;\r\n        loan[loan_count].amount = (eth * tokens);\r\n        loan[loan_count].next_settle_time = now + 2 minutes;//35 days;\r\n        loan[loan_count].months = year*12;\r\n        loan[loan_count].bal_loan = (eth * tokens);\r\n        loan[loan_count].current_installment = amont + (((eth * tokens))/(year*12));\r\n        \r\n        // loan[loan_count].tokens = tokens;\r\n        \r\n        loan_count = loan_count + 1;\r\n    }\r\n    \r\n    function settlement(uint ln_id) public\r\n    {\r\n        // require(loan[ln_id].borrower_address == msg.sender);\r\n        \r\n        // require(loan[ln_id].settle_count <= loan[ln_id].months);\r\n         \r\n        if(loan[ln_id].settle_count < loan[ln_id].months)\r\n        {\r\n            // require( now > (loan[ln_id].next_settle_time - 1 minutes  /* 5 days */)) ;\r\n            \r\n            if( ((loan[ln_id].next_settle_time - 1 minutes  /* 5 days */) <= now) && (now <= loan[ln_id].next_settle_time))\r\n            {\r\n                loan_settle(ln_id,loan[ln_id].current_installment);\r\n            }\r\n\r\n            else\r\n            {\r\n                loan_settle(ln_id, (loan[ln_id].current_installment + 0.01 ether) );\r\n            }\r\n        }\r\n\r\n        else if(loan[ln_id].settle_count == loan[ln_id].months)\r\n        {\r\n            bank_d1[msg.sender].bal -= loan[ln_id].bal_loan; \r\n            bank_d1[ loan[ln_id].lender_address ].bal += loan[ln_id].bal_loan;\r\n            \r\n            bank_d1[msg.sender].borrow_amount -= loan[ln_id].bal_loan;\r\n            bank_d1[ loan[ln_id].lender_address ].lend_amount -= loan[ln_id].bal_loan;\r\n            loan[ln_id].bal_loan -= loan[ln_id].bal_loan;\r\n            \r\n            ERC20( loan[ln_id].token_address ).transferFrom( loan[ln_id].lender_address , msg.sender, (loan[ln_id].amount/eth));\r\n            \r\n            tok_count((loan[ln_id].token_address),msg.sender);\r\n            tok_count((loan[ln_id].token_address),(loan[ln_id].lender_address));\r\n            \r\n            loan[ln_id].settle_count += 1;\r\n        }\r\n    }\r\n    \r\n    function loan_settle(uint ln_id, uint value) public\r\n    {\r\n        require( value <= bank_d1[msg.sender].bal);\r\n        \r\n        transfer((loan[ln_id].lender_address),value);\r\n        \r\n        //bank_d1[msg.sender].bal -= value;\r\n        //bank_d1[ loan[ln_id].lender_address ].bal += value;\r\n\r\n        bank_d1[msg.sender].borrow_amount -= loan[ln_id].amount / loan[ln_id].months;\r\n        bank_d1[ loan[ln_id].lender_address ].lend_amount -= loan[ln_id].amount / loan[ln_id].months;\r\n        loan[ln_id].bal_loan -= loan[ln_id].amount / loan[ln_id].months;  // reduse one installment\r\n        \r\n        amont = ( (loan[ln_id].bal_loan) * ( (bank_d1[ loan[ln_id].lender_address ].loan_interst) / 100) ) /100;\r\n        loan[ln_id].current_installment = amont + (loan[ln_id].amount / loan[ln_id].months);\r\n                \r\n        loan[ln_id].next_settle_time += 1 minutes;//30 days;\r\n        \r\n        loan[ln_id].settle_count += 1;\r\n    }\r\n    \r\n    \r\n    function tok_count(address token,address ad) public\r\n    {\r\n        bank_d1[ad].token_count = ERC20(token).balanceOf(ad);\r\n    }\r\n\r\n\r\n\r\n    //Fixed_Deposit contract functions\r\n    \r\n    function Fixed_Deposit(address bank_addr, uint256 year) public payable ch_register(bank_addr)\r\n    {\r\n        require( bank_client_Details[bank_addr][msg.sender].check == false );               //controlled in front end\r\n        //require(bank_addr != msg.sender);\r\n        bank_client_Details[bank_addr][msg.sender].bank_address = bank_addr;\r\n        bank_client_Details[bank_addr][msg.sender].user_address = msg.sender;\r\n        bank_owner_clients[bank_addr][ bank_client_count[bank_addr] ] = msg.sender;\r\n        \r\n        my_acc_details[msg.sender][ my_acc_count [msg.sender] ] = bank_addr;\r\n        \r\n        if(bank_client_Details[bank_addr][msg.sender].amount == 0)\r\n        {\r\n            bank_client_count[bank_addr]+=1;\r\n            my_acc_count[msg.sender]+=1;\r\n        }\r\n        \r\n        //bank_d1[bank_addr].bal += msg.value;\r\n        deposit(bank_addr);\r\n        \r\n        bank_d1[bank_addr].fixed_amount_bank += msg.value;\r\n        bank_d1[msg.sender].fixed_amount_user += msg.value;\r\n        \r\n        bank_client_Details[bank_addr][msg.sender].amount = msg.value;\r\n        bank_client_Details[bank_addr][msg.sender].end_time =now + 2 minutes;//now + (year *1 years);\r\n        bank_client_Details[bank_addr][msg.sender].year = year;\r\n        bank_client_Details[bank_addr][msg.sender].check = true;\r\n        \r\n    }\r\n        \r\n    function fixed_amount_get(address bank_addr) public\r\n    {\r\n        // require( bank_client_Details[bank_addr][msg.sender].check == true );                 //controlled in front end\r\n        \r\n        // temp_year = (bank_client_Details[bank_addr][msg.sender].year);\r\n        temp_amount = (bank_client_Details[bank_addr][msg.sender].amount);\r\n        \r\n        if ( now >= (bank_client_Details[bank_addr][msg.sender].end_time) )\r\n        {\r\n            temp_int_amt = temp_amount + ( (temp_amount * (bank_client_Details[bank_addr][msg.sender].year) * ( (bank_d1[bank_addr].fixed_deposit_interst) /100)) / 100 );\r\n            fix_settle(bank_addr,msg.sender,temp_int_amt);\r\n        }\r\n        \r\n        else\r\n        {\r\n            temp_int_amt = temp_amount - (temp_amount / 100) ;\r\n            fix_settle(bank_addr,msg.sender,temp_int_amt);\r\n        }\r\n    }        \r\n    \r\n    function fix_settle(address bank,address user,uint value)public\r\n    {\r\n        require(value <= bank_d1[bank].bal);\r\n            \r\n        bank_d1[bank].bal -= value;\r\n        msg.sender.transfer( value );\r\n\r\n        bank_d1[user].fixed_amount_user -= temp_amount;\r\n        bank_d1[bank].fixed_amount_bank -= temp_amount; \r\n            \r\n        bank_client_Details[bank][user].check = false;\r\n    }\r\n    \r\n    function amount_settlement(address user_address) public\r\n    {\r\n        //require( bank_client_Details[msg.sender][user_address].check == true );          //controlled in front end\r\n        \r\n        //require ( now >= (bank_client_Details[msg.sender][user_address].end_time) );                //controlled in front end\r\n        \r\n        // temp_year = (bank_client_Details[msg.sender][user_address].year);\r\n        temp_amount = (bank_client_Details[msg.sender][user_address].amount);\r\n        // temp_interest = (bank_d1[msg.sender].fixed_deposit_interst);\r\n        \r\n        temp_int_amt = temp_amount + ( (temp_amount * (bank_client_Details[msg.sender][user_address].year) * ((bank_d1[msg.sender].fixed_deposit_interst) / 100)) / 100 );\r\n        \r\n        fix_settle(msg.sender,user_address,temp_int_amt);\r\n    }\r\n    \r\n    function loan_due_pending(uint i, uint time,bool id) public view returns(bool,bool)\r\n    {\r\n        uint temp_id;\r\n        bool temp_bending_count;\r\n        bool temp_exp_count;\r\n\r\n        if(id == true)\r\n            temp_id = i;\r\n        else\r\n            temp_id = loan_get_id[msg.sender][i];\r\n\r\n        if( time >= (loan[temp_id].next_settle_time - 1 minutes  /* 5 days */))\r\n        {\r\n            if( ((loan[temp_id].next_settle_time - 1 minutes  /* 5 days */) <= time) && (time <= loan[temp_id].next_settle_time))\r\n            {\r\n                // if( ((loan[temp_id].months - loan[temp_id].settle_count) * (loan[temp_id].amount / loan[temp_id].months)) > 0 )\r\n                if(loan[temp_id].bal_loan > 0)\r\n                    temp_bending_count = true;\r\n            }\r\n            else\r\n            {\r\n                // if( ((loan[temp_id].months - loan[temp_id].settle_count) * (loan[temp_id].amount / loan[temp_id].months)) > 0 )\r\n                if(loan[temp_id].bal_loan > 0)\r\n                    temp_exp_count = true;\r\n            }\r\n        }\r\n        return (temp_bending_count,temp_exp_count);\r\n    }\r\n}",
  "sourcePath": "D:\\GV\\Bank-Walet\\contracts\\Bank.sol",
  "compiler": {
    "name": "solc",
    "version": "0.4.19+commit.c4cbbb05.Emscripten.clang"
  },
  "schemaVersion": "2.0.0",
  "updatedAt": "2018-05-17T07:14:16.347Z"
}